:020000040800F2
:1000000000000120155300081D4D0008254D000873
:100010002D4D0008354D00083D4D00080000000042
:10002000000000000000000000000000454D000836
:10003000514D0008000000005D4D0008694D0008AA
:100040005D5300085D5300085D5300085D530008D0
:100050005D5300085D5300085D5300085D530008C0
:100060005D5300085D5300085D5300085D530008B0
:100070005D5300085D5300085D5300085D530008A0
:100080005D5300085D5300085D5300085D53000890
:100090005D5300085D5300085D5300085D53000880
:1000A0005D5300085D5300085D5300085D53000870
:1000B000754D00085D5300085D5300085D5300084E
:1000C0005D5300085D5300085D5300085D53000850
:1000D0005D530008894D00085D5300085D5300081A
:1000E0005D5300085D5300085D5300085D53000830
:1000F0005D5300085D5300085D5300085D53000820
:100100005D5300085D5300085D5300085D5300080F
:100110005D5300085D5300085D5300085D530008FF
:100120005D5300085D5300085D5300085D530008EF
:1001300000000000000000000000000000000000BF
:1001400000000000000000000000000000000000AF
:10015000000000000000000000000000000000009F
:10016000000000000000000000000000000000008F
:10017000000000000000000000000000000000007F
:10018000000000000000000000000000000000006F
:10019000000000000000000000000000000000005F
:1001A000000000000000000000000000000000004F
:1001B000000000000000000000000000000000003F
:1001C000000000000000000000000000000000002F
:1001D000000000000000000000000000000000001F
:0401E0005FF8E0F1F3
:1001E80010B5054C237833B9044B13B10448AFF369
:1001F80000800123237010BD3C0200200000000095
:10020800A033010808B5034B1BB103490348AFF3FA
:10021800008008BD0000000040020020A033010853
:1002280010F8012B11F8013B012A28BF9A42F7D098
:10023800D01A7047034613F8012B002AFBD1181A6D
:100248000138704781F0004102E000BF83F00043AD
:1002580030B54FEA41044FEA430594EA050F08BF59
:1002680090EA020F1FBF54EA000C55EA020C7FEA1D
:10027800645C7FEA655C00F0E2804FEA5454D4EB9A
:100288005555B8BF6D420CDD2C4480EA020281EA64
:10029800030382EA000083EA010180EA020281EA9C
:1002A8000303362D88BF30BD11F0004F4FEA0131EE
:1002B8004FF4801C4CEA113102D0404261EB4101FD
:1002C80013F0004F4FEA03334CEA133302D0524283
:1002D80063EB430394EA050F00F0A780A4F101043F
:1002E800D5F1200E0DDB02FA0EFC22FA05F2801879
:1002F80041F1000103FA0EF2801843FA05F359415F
:100308000EE0A5F120050EF1200E012A03FA0EFCDD
:1003180028BF4CF0020C43FA05F3C01851EBE37107
:1003280001F0004507D54FF0000EDCF1000C7EEB24
:1003380000006EEB0101B1F5801F1BD3B1F5001F62
:100348000CD349085FEA30004FEA3C0C04F1010481
:100358004FEA445212F5800F80F09A80BCF1004FAA
:1003680008BF5FEA500C50F1000041EB045141EA2C
:10037800050130BD5FEA4C0C404141EB0101013CF5
:1003880028BFB1F5801FE9D291F0000F04BF0146E4
:100398000020B1FA81F308BF2033A3F10B03B3F1B6
:1003A80020020CDA0C3208DD02F1140CC2F10C0246
:1003B80001FA0CF021FA02F10CE002F11402D8BFA4
:1003C800C2F1200C01FA02F120FA0CFCDCBF41EA70
:1003D8000C019040E41AA2BF01EB0451294330BD3F
:1003E8006FEA04041F3C1CDA0C340EDC04F114041C
:1003F800C4F1200220FA04F001FA02F340EA0300F3
:1004080021FA04F345EA030130BDC4F10C04C4F138
:10041800200220FA02F001FA04F340EA0300294618
:1004280030BD21FA04F0294630BD94F0000F83F462
:10043800801306BF81F480110134013D4EE77FEA45
:10044800645C18BF7FEA655C29D094EA050F08BF91
:1004580090EA020F05D054EA000C04BF1946104672
:1004680030BD91EA030F1EBF0021002030BD5FEAB6
:10047800545C05D14000494128BF41F0004130BDDE
:1004880014F580043CBF01F5801130BD01F0004532
:1004980045F0FE4141F470014FF0000030BD7FEAA5
:1004A800645C1ABF194610467FEA655C1CBF0B46A0
:1004B800024650EA013406BF52EA033591EA030FB7
:1004C80041F4002130BD00BF90F0000F04BF0021AF
:1004D800704730B54FF4806404F132044FF00005E2
:1004E8004FF0000150E700BF90F0000F04BF00215B
:1004F800704730B54FF4806404F1320410F00045C1
:1005080048BF40424FF000013EE700BF42004FEABB
:10051800E2014FEA31014FEA02701FBF12F07F4338
:1005280093F07F4F81F06051704732F07F4208BFEF
:10053800704793F07F4F04BF41F40021704730B5F6
:100548004FF4607401F0004521F000411CE700BF42
:1005580050EA010208BF704730B54FF000050AE0C5
:1005680050EA010208BF704730B511F0004502D5C6
:10057800404261EB41014FF4806404F132045FEAC8
:10058800915C3FF4D8AE4FF003025FEADC0C18BF71
:1005980003325FEADC0C18BF033202EBDC02C2F163
:1005A800200300FA03FC20FA02F001FA03FE40EAF5
:1005B8000E0021FA02F11444BDE600BF70B54FF0F9
:1005C800FF0C4CF4E06C1CEA11541DBF1CEA1355D7
:1005D80094EA0C0F95EA0C0F00F0DEF82C4481EA3F
:1005E800030621EA4C5123EA4C5350EA013518BF5F
:1005F80052EA033541F4801143F4801338D0A0FB4C
:1006080002CE4FF00005E1FB02E506F00042E0FBF8
:1006180003E54FF00006E1FB03569CF0000F18BFFE
:100628004EF0010EA4F1FF04B6F5007F64F54074A6
:1006380004D25FEA4E0E6D4146EB060642EAC62139
:1006480041EA55514FEAC52040EA5E504FEACE2EA6
:10065800B4F1FD0C88BFBCF5E06F1ED8BEF1004FA9
:1006680008BF5FEA500E50F1000041EB045170BD25
:1006780006F0004646EA010140EA020081EA030169
:10068800B4EB5C04C2BFD4EB0C0541EA045170BD65
:1006980041F480114FF0000E013C00F3AB8014F1DF
:1006A800360FDEBF002001F0004170BDC4F1000428
:1006B800203C35DA0C341BDC04F11404C4F12005A9
:1006C80000FA05F320FA04F001FA05F240EA020004
:1006D80001F0004221F0004110EBD37021FA04F63A
:1006E80042EB06015EEA430E08BF20EAD37070BDF4
:1006F800C4F10C04C4F1200500FA04F320FA05F053
:1007080001FA04F240EA020001F0004110EBD37054
:1007180041F100015EEA430E08BF20EAD37070BDC4
:10072800C4F1200500FA05F24EEA020E20FA04F39D
:1007380001FA05F243EA020321FA04F001F000414C
:1007480021FA04F220EA020000EBD3705EEA430EBD
:1007580008BF20EAD37070BD94F0000F0FD101F0EC
:100768000046400041EB010111F4801F08BF013C25
:10077800F7D041EA060195F0000F18BF704703F063
:100788000046520043EB030313F4801F08BF013DEA
:10079800F7D043EA0603704794EA0C0F0CEA1355A6
:1007A80018BF95EA0C0F0CD050EA410618BF52EA60
:1007B8004306D1D181EA030101F000414FF0000066
:1007C80070BD50EA410606BF1046194652EA430674
:1007D80019D094EA0C0F02D150EA013613D195EAE8
:1007E8000C0F05D152EA03361CBF104619460AD130
:1007F80081EA030101F0004141F0FE4141F470013A
:100808004FF0000070BD41F0FE4141F4780170BD29
:1008180070B54FF0FF0C4CF4E06C1CEA11541DBF8E
:100828001CEA135594EA0C0F95EA0C0F00F0A7F890
:10083800A4EB050481EA030E52EA03354FEA0131BD
:1008480000F088804FEA03334FF0805545EA1313D0
:1008580043EA12634FEA022245EA111545EA106598
:100868004FEA00260EF000419D4208BF964244F12F
:10087800FD0404F5407402D25B084FEA3202B61A4E
:1008880065EB03055B084FEA32024FF480104FF422
:10089800002CB6EB020E75EB030E22BFB61A754696
:1008A80040EA0C005B084FEA3202B6EB020E75EB29
:1008B800030E22BFB61A754640EA5C005B084FEA91
:1008C8003202B6EB020E75EB030E22BFB61A75465E
:1008D80040EA9C005B084FEA3202B6EB020E75EB69
:1008E800030E22BFB61A754640EADC0055EA060E2A
:1008F80018D04FEA051545EA16754FEA06164FEA6D
:10090800C30343EA52734FEAC2025FEA1C1CC0D118
:1009180011F4801F0BD141EA00014FF000004FF0A5
:10092800004CB6E711F4801F04BF01430020B4F166
:10093800FD0C88BFBCF5E06F3FF6AFAEB5EB030C1E
:1009480004BFB6EB020C5FEA500C50F1000041EB1B
:10095800045170BD0EF0004E4EEA113114EB5C04E8
:10096800C2BFD4EB0C0541EA045170BD41F48011BB
:100978004FF0000E013C90E645EA060E8DE60CEAC3
:10098800135594EA0C0F08BF95EA0C0F3FF43BAFE0
:1009980094EA0C0F0AD150EA01347FF434AF95EA97
:1009A8000C0F7FF425AF104619462CE795EA0C0F7B
:1009B80006D152EA03353FF4FDAE1046194622E748
:1009C80050EA410618BF52EA43067FF4C5AE50EA22
:1009D80041047FF40DAF52EA43057FF4EBAE12E712
:1009E8004FF0FF3C06E000BF4FF0010C02E000BFF3
:1009F8004FF0010C4DF804CD4FEA410C7FEA6C5CD6
:100A08004FEA430C18BF7FEA6C5C1BD001B050EA78
:100A1800410C0CBF52EA430C91EA030F02BF90EA63
:100A2800020F0020704710F1000F91EA030F58BF22
:100A3800994208BF90422CBFD8176FEAE37040F084
:100A4800010070474FEA410C7FEA6C5C02D150EA22
:100A5800013C07D14FEA430C7FEA6C5CD6D152EADD
:100A6800033CD3D05DF8040B704700BF84461046A2
:100A780062468C461946634600E000BF01B5FFF7A1
:100A8800B7FF002848BF10F1000F01BD4DF808ED71
:100A9800FFF7F4FF0CBF012000205DF808FB00BF42
:100AA8004DF808EDFFF7EAFF34BF012000205DF89C
:100AB80008FB00BF4DF808EDFFF7E0FF94BF0120E9
:100AC80000205DF808FB00BF4DF808EDFFF7CEFFEA
:100AD80094BF012000205DF808FB00BF4DF808ED29
:100AE800FFF7C4FF34BF012000205DF808FB00BFFA
:100AF8004FEA410C7FEA6C5C02D150EA013C0AD112
:100B08004FEA430C7FEA6C5C02D152EA033C02D103
:100B18004FF0000070474FF0010070474FEA410264
:100B280012F5001215D211D56FF47873B3EB625237
:100B380012D94FEAC12343F0004343EA505311F05E
:100B4800004F23FA02F018BF404270474FF00000F0
:100B5800704750EA013005D111F0004008BF6FF02E
:100B6800004070474FF00000704700BF4A0011D2A4
:100B780012F5001211D20DD56FF47873B3EB6252EF
:100B88000ED44FEAC12343F0004343EA505323FAFB
:100B980002F070474FF00000704750EA013002D170
:100BA8004FF0FF3070474FF0000070474FEA4102A6
:100BB800B2F1E04324BFB3F5001CDCF1FE5C0DD9B3
:100BC80001F0004C4FEAC0024CEA5070B2F1004FFD
:100BD80040EB830008BF20F00100704711F0804F00
:100BE80021D113F13872BCBF01F00040704741F4C5
:100BF80080114FEA5252C2F11802C2F1200C10FAC9
:100C08000CF320FA02F018BF40F001004FEAC123AC
:100C18004FEAD32303FA0CFC40EA0C0023FA02F350
:100C28004FEA4303CCE77FEA625307D150EA013326
:100C38001EBF4FF0FE4040F44000704701F00040F6
:100C480040F0FE4040F40000704700BF80F00040D4
:100C580002E000BF81F0004142001FBF5FEA41038C
:100C680092EA030F7FEA226C7FEA236C6AD04FEA8C
:100C78001262D2EB1363C1BFD218414048404140D1
:100C8800B8BF5B42192B88BF704710F0004F40F483
:100C9800000020F07F4018BF404211F0004F41F49F
:100CA800000121F07F4118BF494292EA030F3FD06B
:100CB800A2F1010241FA03FC10EB0C00C3F120037E
:100CC80001FA03F100F0004302D5494260EB40000D
:100CD800B0F5000F13D3B0F1807F06D340084FEA78
:100CE800310102F10102FE2A51D2B1F1004F40EB6D
:100CF800C25008BF20F0010040EA030070474900D5
:100D080040EB0000013A28BFB0F5000FEDD2B0FA71
:100D180080FCACF1080CB2EB0C0200FA0CF0AABF94
:100D280000EBC25052421843BCBFD0401843704732
:100D380092F0000F81F4000106BF80F40000013238
:100D4800013BB5E74FEA41037FEA226C18BF7FEA0F
:100D5800236C21D092EA030F04D092F0000F08BF51
:100D68000846704790EA010F1CBF0020704712F038
:100D78007F4F04D1400028BF40F00040704712F177
:100D880000723CBF00F50000704700F0004343F0DC
:100D9800FE4040F4000070477FEA226216BF084612
:100DA8007FEA23630146420206BF5FEA412390EAD5
:100DB800010F40F4800070474FF0000304E000BFCB
:100DC80010F0004348BF40425FEA000C08BF70477C
:100DD80043F0964301464FF000001CE050EA010240
:100DE80008BF70474FF000030AE000BF50EA010255
:100DF80008BF704711F0004302D5404261EB410142
:100E08005FEA010C02BF84460146002043F0B64366
:100E180008BFA3F18053A3F50003BCFA8CF2083A8B
:100E2800A3EBC25310DB01FA02FC634400FA02FC94
:100E3800C2F12002BCF1004F20FA02F243EB02009B
:100E480008BF20F00100704702F1200201FA02FCFD
:100E5800C2F1200250EA4C0021FA02F243EB0200F0
:100E680008BF20EADC7070474FF0FF0C1CEAD05234
:100E78001EBF1CEAD15392EA0C0F93EA0C0F6FD0F5
:100E88001A4480EA010C400218BF5FEA41211ED0D3
:100E98004FF0006343EA501043EA5111A0FB0131BF
:100EA8000CF00040B1F5000F3EBF490041EAD37194
:100EB8005B0040EA010062F17F02FD2A1DD8B3F110
:100EC800004F40EBC25008BF20F00100704790F07F
:100ED800000F0CF0004C08BF49024CEA502040EAD1
:100EE80051207F3AC2BFD2F1FF0340EAC250704797
:100EF80040F400004FF00003013A5DDC12F1190FD5
:100F0800DCBF00F000407047C2F10002410021FA46
:100F180002F1C2F1200200FA02FC5FEA310040F15E
:100F2800000053EA4C0308BF20EADC70704792F0D7
:100F3800000F00F0004C02BF400010F4000F013A0F
:100F4800F9D040EA0C0093F0000F01F0004C02BF0A
:100F5800490011F4000F013BF9D041EA0C018FE779
:100F68000CEAD15392EA0C0F18BF93EA0C0F0AD07F
:100F780030F0004C18BF31F0004CD8D180EA0100A5
:100F880000F00040704790F0000F17BF90F0004F3E
:100F9800084691F0000F91F0004F14D092EA0C0F20
:100FA80001D142020FD193EA0C0F03D14B0218BFB3
:100FB800084608D180EA010000F0004040F0FE40F9
:100FC80040F40000704740F0FE4040F44000704795
:100FD8004FF0FF0C1CEAD0521EBF1CEAD15392EA14
:100FE8000C0F93EA0C0F69D0A2EB030280EA010C04
:100FF80049024FEA402037D04FF0805343EA11119D
:1010080043EA10130CF000408B4238BF5B0042F1FA
:101018007D024FF4000C8B4224BF5B1A40EA0C009F
:10102800B3EB510F24BFA3EB510340EA5C00B3EBD1
:10103800910F24BFA3EB910340EA9C00B3EBD10FBF
:1010480024BFA3EBD10340EADC001B0118BF5FEA11
:101058001C1CE0D1FD2A3FF650AF8B4240EBC2503A
:1010680008BF20F0010070470CF0004C4CEA5020FB
:101078007F32C2BFD2F1FF0340EAC250704740F44A
:1010880000004FF00003013A37E792F0000F00F03C
:10109800004C02BF400010F4000F013AF9D040EABA
:1010A8000C0093F0000F01F0004C02BF490011F44E
:1010B800000F013BF9D041EA0C0195E70CEAD15346
:1010C80092EA0C0F08D142027FF47DAF93EA0C0F2D
:1010D8007FF470AF084676E793EA0C0F04D14B0211
:1010E8003FF44CAF08466EE730F0004C18BF31F0C3
:1010F800004CCAD130F000427FF45CAF31F00043BD
:101108007FF43CAF5FE700BF4FF0FF3C06E000BF55
:101118004FF0010C02E000BF4FF0010C4DF804CD78
:101128004FEA40024FEA41037FEA226C18BF7FEA88
:10113800236C11D001B052EA530C18BF90EA010F8A
:1011480058BFB2EB030088BFC81738BF6FEAE17019
:1011580018BF40F0010070477FEA226C02D15FEAB5
:10116800402C05D17FEA236CE4D15FEA412CE1D021
:101178005DF8040B704700BF844608466146FFE7E8
:101188000FB5FFF7C9FF002848BF10F1000F0FBDCA
:101198004DF808EDFFF7F4FF0CBF012000205DF8C3
:1011A80008FB00BF4DF808EDFFF7EAFF34BF012048
:1011B80000205DF808FB00BF4DF808EDFFF7E0FFE1
:1011C80094BF012000205DF808FB00BF4DF808ED32
:1011D800FFF7D2FF94BF012000205DF808FB00BF95
:1011E8004DF808EDFFF7C8FF34BF012000205DF877
:1011F80008FB00BF42000ED2B2F1FE4F0BD34FF0F6
:101208009E03B3EB126209D44FEA002343F0004374
:1012180023FA02F070474FF00000704712F1610F97
:1012280001D1420202D14FF0FF3070474FF0000069
:10123800704700BF38B50022002304460D46FFF76B
:101248002FFC28B920462946BDE8384000F00AB8E6
:10125800204605F1004100F005F8404261EB4101EC
:1012680038BD00BFD0B500220B4B06460F46FFF72E
:10127800A5F9FFF77BFC0446FFF726F90022074B88
:10128800FFF79CF902460B4630463946FEF7DEFF6B
:10129800FFF76CFC2146D0BD0000F03D0000F04196
:1012A80080B588B000AF00F015F907F110030022EF
:1012B8001A605A609A60DA607E4B9B697D4A43F0F7
:1012C800040393617B4B9B6903F00403FB60FB6899
:1012D800784B9B69774A43F010039361754B9B6980
:1012E80003F01003BB60BB68724B9B69714A43F003
:1012F800200393616F4B9B6903F020037B607B683D
:101308006C4B9B696B4A43F480739361694B9B698F
:1013180003F480733B603B6801237B610123BB615D
:101328000323FB6120233B6107F110031946624840
:101338000AF000FC10233B6107F1100319465E48D0
:101348000AF0F8FB08233B6107F1100319465B48D4
:101358000AF0F0FB4FF480733B6107F11003194664
:1013680055480AF0E7FB80233B6107F11003194653
:1013780051480AF0DFFB04233B6107F110031946CB
:101388004E480AF0D7FB4FF480633B6107F1100326
:1013980019464B480AF0CEFB01233B6107F11003C5
:1013A800194648480AF0C6FB4FF480633B6107F1D1
:1013B8001003194641480AF0BDFB40233B6107F181
:1013C800100319463C480AF0B5FB4FF400733B6123
:1013D80007F11003194639480AF0ACFB20233B619A
:1013E80007F11003194635480AF0A4FB10233B61A6
:1013F80007F11003194631480AF09CFB00F0B2F8D7
:1014080000F0FCF80123304A0321012000F030F9F4
:1014180001232E4A0221022000F02AF900F0A2F846
:1014280000F0ECF80123284A0321012000F020F9FC
:101438000123264A0221022000F01AF9244BDB8BF3
:1014480000221946032000F03DFB214BDB8B0022D4
:101458001946002000F036FB1D4BDB8B0022194695
:10146800012000F02FFB1A4BDB8B002219460220CB
:1014780000F028FB164BDB6800221946032000F019
:101488001FFA134B1B6800221946002000F018FAB7
:101498000F4B5B6800221946012000F011FA0C4B33
:1014A8009B6800221946022000F00AFA00BF203784
:1014B800BD4680BD001002400008014000200140E8
:1014C800000C014000100140100000201400002012
:1014D8005802002080B400AF154B164A1A60144B0E
:1014E800144A5A60124B134A9A60114B114ADA6037
:1014F8000F4B00221A820E4B00225A820C4B0022FC
:101508009A820B4B0022DA82094B40F2FF321A838F
:10151800074B40F2FF325A83054B40F2FF329A8361
:10152800034B40F2FF32DA8300BFBD4680BC7047F0
:101538005802002080C3C90180B483B000AF78602E
:101548007A6813465B0013449B007B6000BF7B688E
:101558005A1E7A60002BFAD100BF00BF0C37BD4677
:1015680080BC704780B500AF002210211F480AF0E8
:101578008CFC012240211E480AF087FC00224FF40F
:1015880080611A480AF081FC00224FF40071174864
:101598000AF07BFC0022802115480AF076FC002224
:1015A800042112480AF071FC00224FF480611148AE
:1015B8000AF06BFC002201210F480AF066FC0022A9
:1015C80020210B480AF061FC0022102108480AF08B
:1015D8005CFC0022082105480AF057FC00224FF461
:1015E800807103480AF051FC00BF80BD0020014013
:1015F80000080140000C01400010014080B500AF18
:10160800002220210A480AF040FC0120FFF794FF3D
:101618000122202106480AF038FC1E20FFF78CFF23
:101628000022202102480AF030FC00BF80BD00BF24
:101638000020014080B500AF00224FF400710B4834
:101648000AF023FC0220FFF777FF01224FF4007114
:1016580006480AF01AFC0420FFF76EFF00224FF438
:10166800007102480AF011FC00BF80BD0020014053
:1016780080B584B000AF3A601A460346FB710B464A
:10168800BB7113467B710023FB730023BB730023DC
:101698007B7300233B73FB79FB7300224FF480615B
:1016A8003F480AF0F2FB002240213E480AF0EDFBD9
:1016B80000233B7320E000224FF4806138480AF091
:1016C800E4FB97F90F30002B05DA01222021354879
:1016D8000AF0DBFB04E00022202132480AF0D5FBA7
:1016E80001224FF480612E480AF0CFFBFB7B5B00A0
:1016F800FB733B7B01333B733B7B072BDBD900221E
:101708004FF4806126480AF0C0FB00237B7334E065
:101718007B7B3A6813441B78BB7300233B7320E040
:1017280000224FF480611E480AF0AFFB97F90E3093
:10173800002B05DA012220211A480AF0A6FB04E052
:101748000022202117480AF0A0FB01224FF48061F3
:1017580013480AF09AFBBB7B5B00BB733B7B0133EE
:101768003B733B7B072BDBD900224FF480610C488D
:101778000AF08BFB7B7B01337B737A7BBB799A42C4
:10178800C6D37B79012B01D1FFF754FF01224021F9
:1017980004480AF07AFB00BF1037BD4680BD00BF81
:1017A800002001400008014080B584B000AF034626
:1017B8003960FB710023BB603868FEF785FE38A3EB
:1017C800D3E90023FEF7FAFE02460B4610461946F7
:1017D800FFF7CCF90346FB60FB68DBB2FB72FB68E2
:1017E8001B0ADBB2BB72FB681B0CDBB27B72FB68AB
:1017F8001B0EDBB23B72FB79002B10D12A4A3B68E7
:1018080013600123294A01210020FFF731FF07F166
:101818000802012304210420FFF72AFF3AE0FB799C
:10182800012B10D1204A3B6853600123204A012133
:101838000020FFF71DFF07F10802012304210420FF
:10184800FFF716FF26E0FB79022B10D1164A3B68FA
:1018580093600123174A01210020FFF709FF07F1D0
:101868000802012304210420FFF702FF12E0FB799C
:10187800032B0FD10C4A3B68D36001230E4A012188
:101888000020FFF7F5FE07F10802012304210420D8
:10189800FFF7EEFE00BF1037BD4680BDAFF30080F6
:1018A80095D626E80B2E2140580200200000002083
:1018B80004000020080000200C00002000000000A8
:1018C80080B584B000AF03463960FB711346BB7125
:1018D8000023BB603868FEF7F7FD37A3D3E9002380
:1018E800FEF76CFE02460B4610461946FFF73EF916
:1018F8000346FB60FB68DBB2FB72FB681B0ADBB2CA
:10190800BB72FB681B0CDBB27B72FB681B0EDBB285
:101918003B72FB79002B10D1294A3B681360BB79D5
:10192800284A01210020FFF7A3FEBB7907F108022E
:1019380004210420FFF79CFE3AE0FB79012B10D12B
:101948001F4A3B685360BB791F4A01210020FFF7FB
:101958008FFEBB7907F1080204210420FFF788FEF7
:1019680026E0FB79022B10D1154A3B689360BB79BE
:10197800164A01210020FFF77BFEBB7907F1080218
:1019880004210420FFF774FE12E0FB79032B0FD12A
:101998000B4A3B68D360BB790D4A01210020FFF751
:1019A80067FEBB7907F1080204210420FFF760FEF7
:1019B80000BF1037BD4680BD95D626E80B2E2140C6
:1019C8005802002000000020040000200800002029
:1019D8000C00002080B584B000AF03460A46FB71B6
:1019E8001346BB8007F1080300210A461A800A46FD
:1019F8009A70BB8843F48053FB81FB89DBB2BB72CE
:101A0800FB891B0A9BB2DBB27B72FB79002B10D1DE
:101A1800274ABB8813830123264A01210020FFF7A8
:101A280027FE07F10802012303210620FFF720FE05
:101A38003AE0FB79012B10D11D4ABB88538301235F
:101A48001D4A01210020FFF713FE07F108020123B8
:101A580003210620FFF70CFE26E0FB79022B10D1AC
:101A6800134ABB8893830123144A01210020FFF7FE
:101A7800FFFD07F10802012303210620FFF7F8FD07
:101A880012E0FB79032B0FD1094ABB88D3830123CA
:101A98000B4A01210020FFF7EBFD07F108020123A3
:101AA80003210620FFF7E4FD00BF1037BD4680BDC7
:101AB8005802002000000020040000200800002038
:101AC8000C00002080B584B000AF0346FB710B46C4
:101AD800BB801346BB7107F1080300210A461A8030
:101AE8000A469A70BB8843F48053FB81FB89DBB2BA
:101AF800BB72FB891B0A9BB2DBB27B72FB79002BA2
:101B080010D1284ABB881383BB79274A01210020BA
:101B1800FFF7AEFDBB7907F1080203210620FFF7A6
:101B2800A7FD3AE0FB79012B10D11E4ABB885383ED
:101B3800BB791E4A01210020FFF79AFDBB7907F106
:101B4800080203210620FFF793FD26E0FB79022B0C
:101B580010D1144ABB889383BB79154A0121002010
:101B6800FFF786FDBB7907F1080203210620FFF77E
:101B78007FFD12E0FB79032B0FD10A4ABB88D38380
:101B8800BB790C4A01210020FFF772FDBB7907F1F0
:101B9800080203210620FFF76BFD00BF1037BD4682
:101BA80080BD00BF58020020000000200400002073
:101BB800080000200C00002080B584B000AF034668
:101BC8000A46FB711346BB800023FB81BB88FB815F
:101BD800FB89DAB22B4B5A70FB891B0A9BB2DAB22B
:101BE800284B1A70FB79002B0FD1274ABB88D38268
:101BF8000023264A01210020FFF73AFD0023214A4D
:101C080002210520FFF734FD37E0FB79012B0FD1C6
:101C18001D4ABB88D38200231D4A01210020FFF7FB
:101C280027FD0023174A02210520FFF721FD24E0A4
:101C3800FB79022B0FD1144ABB88D3820023154AA3
:101C480001210020FFF714FD00230E4A0221052080
:101C5800FFF70EFD11E0FB79032B0ED10A4ABB8872
:101C6800D38200230C4A01210020FFF701FD002345
:101C7800044A02210520FFF7FBFC00BF1037BD46D0
:101C880080BD00BF7802002058020020000000201C
:101C980004000020080000200C00002080B584B05B
:101CA80000AF3B1D00221A605A609A601A4B1B4A0B
:101CB8001A60194B00229A60174B00221A73164BB0
:101CC80000221A75144B4FF46022DA61124B00227D
:101CD8005A60114B01221A610F4808F0EFFF0346C2
:101CE800002B01D002F0DBFF01237B600123BB60E6
:101CF8000023FB603B1D1946074809F089FA034693
:101D0800002B01D002F0CBFF034809F015FC00BFFF
:101D18001037BD4680BD00BF7C0200200024014072
:101D280080B588B000AF786007F1100300221A6010
:101D38005A609A60DA607B681B68144A934221D122
:101D4800134B9B69124A43F400739361104B9B69D0
:101D580003F40073FB60FB680D4B9B690C4A43F06E
:101D6800040393610A4B9B6903F00403BB60BB68DF
:101D780002233B6103237B6107F1100319460548E1
:101D880009F0D8FE00BF2037BD4680BD00240140C1
:101D9800001002400008014080B588B000AFF8602C
:101DA800B9607A603B60BB687B617B68BB613B68FC
:101DB800FB6107F114031946F86809F029FA00BF16
:101DC8002037BD4680BD000080B582B000AF786086
:101DD8000723012279680948FFF7DEFF074809F061
:101DE80057F80A21054809F001F9044809F004FAEE
:101DF80003469BB218460837BD4680BD7C020020CA
:101E080080B58EB000AF07F11C0300221A605A603B
:101E18009A60DA601A615A619A613B4600221A6038
:101E28005A609A60DA601A615A619A61304B4FF0D1
:101E380020421A602E4B2F4A5A602D4B06229A6078
:101E48002B4B0022DA602A4B00221A61284B102201
:101E58005A61274B00229A61254B0022DA61244BF4
:101E680000221A62224B00225A62214B4FF4805200
:101E78009A621F4B0022DA621D4B4FF480421A63AC
:101E88001B4B00225A631A4B00229A630023FB6102
:101E98000F233B620F237B620F23BB621023FB627D
:101EA80011233B6300237B6300233B600F237B608C
:101EB8000123BB600F23FB6010233B6111237B616F
:101EC8000023BB613A4607F11C03194608480AF08B
:101ED80093FD0346002B01D002F0E1FE064BDB69BF
:101EE800054A43F48063D36100BF3837BD4680BDDF
:101EF800AC020020040100A00000014080B586B0BB
:101F080000AF07F1080300221A605A609A60DA608D
:101F18001F4B1B68002B36D11D4B01221A601D4B2D
:101F28005B691C4A43F4807353611A4B5B6903F481
:101F380080737B607B6841F20103BB600223FB6016
:101F480003237B6107F108031946134809F0F2FDE2
:101F58004FF68073BB600223FB6003237B6107F1AC
:101F6800080319460D4809F0E5FD4CF23373BB60D0
:101F78000223FB6003237B6107F108031946084825
:101F880009F0D8FD00E000BF1837BD4680BD00BF8E
:101F9800F402002000100240002001400018014017
:101FA8000014014080B582B000AF7860FFF7A6FF4B
:101FB80000BF0837BD4680BD80B58AB000AF07F1C5
:101FC800180300221A605A609A60DA60434B9B69D2
:101FD800424A43F040039361404B9B6903F040033E
:101FE8007B617B693D4B9B693C4A43F010039361DD
:101FF8003A4B9B6903F010033B613B69374B9B6984
:10200800364A43F004039361344B9B6903F004039D
:10201800FB60FB68314B9B69304A43F008039361CE
:102028002E4B9B6903F00803BB60BB682B4B9B6975
:102038002A4A43F480739361284B9B6903F48073A5
:102048007B607B68254B9B69244A43F0200393619E
:10205800224B9B6903F020033B603B680122382137
:102068001F4809F012FF0122E1211E4809F00DFF67
:1020780000224FF480711B4809F007FF3823BB6129
:102088000123FB6101233B6203237B6207F11803F1
:102098001946134809F04EFDE123BB610123FB619A
:1020A80001233B6203237B6207F1180319460D489D
:1020B80009F040FD4FF48073BB610123FB610223EB
:1020C8003B6203237B6207F118031946054809F0B0
:1020D80031FD00BF2837BD4680BD00BF001002405B
:1020E80000180140000C014090B58BB004AF48F2D5
:1020F800304006F0CBFCA34B48F230421A601F2355
:102108000293A14B019320230093282364221921D1
:10211800582006F06DFFB423FB822823BB821E23C0
:102128007B8264233B829623FB81C823BB811823CF
:10213800FB72BA8AFB7AD31ADA0F13445B103B811D
:10214800FB8A5B089AB27B8A13449BB2063B9CB21B
:102158003A8ABB8A13449BB2398A788A4CF218624D
:102168000092224606F0C0FC864B4CF218621A60B8
:10217800FB8A5B089AB27B8A13449BB2063B9CB2EB
:102188003A8ABB8A13449BB2398A788A0022009221
:10219800224606F06CFD7B8A0A3398B23A8A3B895C
:1021A800134499B2BC8AFA8A00230293774B0193AD
:1021B800FB7A0093234606F01BFFFB8A5B089AB262
:1021C8007B8A13449BB2063398B27A8AFB8A1344FB
:1021D8009CB23A8ABB8A13449BB2398A4CF2186281
:1021E8000092224606F080FC664B4CF218621A6098
:1021F800FB8A5B089AB27B8A13449BB2063398B277
:102208007A8AFB8A13449CB23A8ABB8A13449BB2EB
:10221800398A00220092224606F029FDFB8A5B08D3
:102228009AB27B8A13449BB2143398B23A8A3B8998
:10223800134499B2BC8AFA8A00230293544B01933F
:10224800FB7A0093234606F0D3FE7A8AFB8A13446E
:102258009CB2FA89BB8A13449BB2F989788A4CF2FA
:1022680018620092224606F03FFC464B4CF2186278
:102278001A607A8AFB8A13449CB2FA89BB8A13448F
:102288009BB2F989788A00220092224606F0EFFC78
:10229800FB8A323B5B089AB27B8A134498B2FA896C
:1022A8003B89134499B2BC8AFA8A00230293394BBA
:1022B8000193FB7A0093234606F09AFE7A8AFB8AFA
:1022C80013449CB2BA89BB8A13449BB2B989788AF1
:1022D8004CF218620092224606F006FC294B4CF29A
:1022E80018621A607A8AFB8A13449CB2BA89BB8A3C
:1022F80013449BB2B989788A00220092224606F0DC
:10230800B6FCFB8A463B5B089AB27B8A134498B2B8
:10231800BA893B89134499B2BC8AFA8A002302938A
:102328001D4B0193FB7A0093234606F061FE154B83
:1023380048F230421A604FF478430293174B0193E6
:102348000C2300931023282240F23111032006F0B9
:102358004FFE4FF478430293114B01930C230093E3
:102368001023282240F23111C92006F041FE0D4BFE
:102378005B68002098470B4B9B8E1BB2002B80F2AA
:10238800CE8011E01C000020B8330108C0330108DA
:10239800C4330108C8330108D0330108D833010811
:1023A800E03301082400002000222021624809F0BF
:1023B8006CFD624B9B89FB80604B1B8CBB80FA8851
:1023C8007B8A9A421CD9FA883B8A9A4218D27B8A1D
:1023D800FA8A520892B21344062B11D0BA883B8A63
:1023E8009A420DD9BA88398ABB8A0B449A4207DACD
:1023F800534B1A78534B1A70514B01221A7097E0BD
:10240800FA887B8AF98A490889B20B4406339A42CA
:1024180017DDFA88798AFB8A0B449A4211DABA885E
:102428003B8A9A420DD9BA88398ABB8A0B449A42A8
:1024380007DA434B1A78434B1A70414B02221A7041
:1024480076E0FA887B8A9A4217D9FA88798AFB8AD1
:102458000B449A4211DABA88FB899A420DD9BA8894
:10246800F989BB8A0B449A4207DA354B1A78354BFF
:102478001A70334B03221A705AE0FA887B8A9A4200
:1024880017D9FA88798AFB8A0B449A4211DABA88F2
:10249800BB899A420DD9BA88B989BB8A0B449A423A
:1024A80007DA274B1A78274B1A70254B04221A7023
:1024B8003EE0FB88002B12D0FB881D2B0FD8BB8871
:1024C800B3F5987F0BD3BB88B3F5A07F07D21C4B1D
:1024D8001A781C4B1A701A4B07221A7028E0FB88CE
:1024E800C82B16D9FB88EF2B13D8BB88B3F5987F78
:1024F8000FD3BB88B3F5A07F0BD2114B1A78114BC1
:102508001A700F4B06221A7012E00C4B5B68002001
:1025180098470A4B9B8E1BB2002BF6DB04E0012286
:102528002021054809F0B1FC14200CF0A9FB1EE796
:102538001C37BD4690BD00BF000C014024000020A0
:10254800E0080020E108002090B59BB004AF48F2F5
:10255800304006F09BFACC4B48F230421A601F23F9
:102568000293CA4B01932023009328236422142149
:10257800602006F03DFD0A23A7F856300A23A7F885
:1025880054302823A7F852302823A7F85030B7F83A
:102598005620B7F8523013449CB2B7F85420B7F815
:1025A800503013449BB2B7F85410B7F856004CF2A9
:1025B80018620092224606F097FAB34B4CF2186262
:1025C8001A60B7F85620B7F8523013449CB2B7F8DF
:1025D8005420B7F8503013449BB2B7F85410B7F8EA
:1025E800560000220092224606F041FBB7F856300A
:1025F8000A3398B2B7F85430043399B200230293DF
:10260800A34B0193202300931823102206F0F0FC1B
:10261800A023A7F84E301423A7F84C304123A7F87D
:102628004A302823A7F84830B7F84E20B7F84A3080
:1026380013449CB2B7F84C20B7F8483013449BB207
:10264800B7F84C10B7F84E004FF6E07200922246E9
:1026580006F04AFA8C4B4FF6E0721A60B7F84E2033
:10266800B7F84A3013449CB2B7F84C20B7F8483052
:1026780013449BB2B7F84C10B7F84E0000220092F2
:10268800224606F0F4FA834B1B781A4607F120031A
:10269800814918460DF0C8FAB7F84E300A3398B297
:1026A800B7F84C30083399B2B7F84A30143B9AB2AD
:1026B800B7F84830103B9CB21F23029307F1200360
:1026C800019318230093234606F092FCC823A7F829
:1026D80046303C23A7F844301423A7F84230462359
:1026E800A7F840309623FB87E623BB87102387F89B
:1026F8003B30B7F84220B7F8463013449CB2B7F8DD
:102708004020B7F8443013449BB2B7F84010B7F8EC
:1027180042004CF218620092224606F0E5F95A4B44
:102728004CF218621A60B7F84220B7F846301344E2
:102738009CB2B7F84020B7F8443013449BB2B7F8BE
:102748004010B7F8420000220092224606F08FFAA5
:10275800B7F842300A3398B2B7F84030083399B224
:10276800B7F84630143B9AB2B7F84430103B9BB2E6
:1027780000240294494C01941824009406F038FC73
:10278800444B1B781A46464B53F822203B46454992
:1027980018460DF049FAB7F84230643398B2B7F8E2
:1027A8004030233399B2B7F846306E3B9AB24FF4B3
:1027B800784302933B46019397F83B3000931423E8
:1027C80006F016FCB7F84220B7F8463013449CB21E
:1027D800FA8FB7F8443013449BB2F98FB7F8420028
:1027E8004CF218620092224606F07EF9264B4CF213
:1027F80018621A60B7F84220B7F8463013449CB202
:10280800FA8FB7F8443013449BB2F98FB7F84200F7
:1028180000220092224606F02AFAB7F842300A331C
:1028280098B2FB8F083399B2B7F84630143B9AB286
:10283800B7F84430103B9BB2002402941A4C019420
:102848001824009406F0D4FB124B1B781A46174B39
:1028580033F812301A463B46154918460DF0E4F98C
:10286800B7F84230643398B2FB8F233399B2B7F884
:1028780046308C3B9AB24FF4784302933B4601931F
:1028880097F83B30009315E01C000020C033010886
:10289800E833010818030020EC330108F433010879
:1028A800F8020020FC330108043401080803002062
:1028B80008340108142306F09BFB78233B87B7F8FC
:1028C80042203B8F13449CB2BA8FB7F8443013446C
:1028D8009BB2B98FB7F842004CF2186200922246B8
:1028E80006F002F9994B4CF218621A60B7F84220C8
:1028F8003B8F13449CB2BA8FB7F8443013449BB251
:10290800B98FB7F8420000220092224606F0AFF9CC
:10291800B7F842300A3398B2BB8F083399B23B8F6D
:10292800143B9AB2B7F84430103B9BB2002402948F
:10293800874C01941824009406F05AFB854B1B78A9
:102948001A46854B33F812301A463B4683491846D7
:102958000DF06AF9B7F842303C3398B2BB8F233395
:1029680099B23B8F463B9AB24FF4784302933B4669
:10297800019397F83B300093142306F039FBB7F81E
:1029880042203B8F13449BB21433FB863C23BB8607
:10299800FA8EBB8E13449CB2BA8FB7F844301344F6
:1029A8009BB2B98FF88E4FF4FC620092224606F073
:1029B8009BF8664B4FF4FC621A60FA8EBB8E134488
:1029C8009CB2BA8FB7F8443013449BB2B98FF88ED3
:1029D80000220092224606F04AF9FB8E0E3398B286
:1029E800BB8F123399B2BB8E103B9AB2B7F8443002
:1029F800243B9BB200240294594C0194182400945F
:102A080006F0F6FA574B5B6800209847554B9B8EAB
:102A18001BB2002B80F2308100222021524809F09D
:102A280034FA504B9B897B864E4B1B8C3B867A8EA7
:102A3800B7F856309A4218D97A8EB7F85610B7F8C0
:102A480052300B449A4210DA3A8EB7F854309A4210
:102A58000BD93A8EB7F85410B7F850300B449A4255
:102A680003DA424B00221A7014E17A8EB7F84E301E
:102A78009A4222D97A8EB7F84E10B7F84A300B44EA
:102A88009A421ADA3A8EB7F84C309A4215D93A8EE9
:102A9800B7F84C10B7F848300B449A420DDA2D4B72
:102AA8001B7801335A4203F0030302F0030258BFB4
:102AB8005342DAB2274B1A70ECE07A8EB7F84230FC
:102AC8009A421FD97A8EB7F84210B7F846300B44AD
:102AD8009A4217DA3A8EB7F840309A4212D93A8EAB
:102AE800B7F84010B7F844300B449A420ADA204B42
:102AF80001221A701D4B1A781E4B1A701B4B0522A7
:102B08001A70C7E07A8EB7F842309A4234D97A8E72
:102B1800B7F84210B7F846300B449A422CDA3A8E8E
:102B2800FB8F9A4228D93A8EF98FB7F844300B4474
:102B38009A4221DA0E4B02221A700C4B1A780D4B6E
:102B48001A700A4B05221A70A4E000BF1C0000206E
:102B5800103401081803002010030020183401085D
:102B68002034010824000020000C0140E008002067
:102B7800E2080020E10800207A8EB7F842309A4235
:102B88001CD97A8EB7F842103B8F0B449A4215DA5B
:102B98003A8EBB8F9A4211D93A8EB98FB7F8443022
:102BA8000B449A420ADA404B03221A703F4B1A78B8
:102BB8003F4B1A703D4B05221A706BE07A8EFB8EE4
:102BC8009A4253D97A8EF98EBB8E0B449A424DDACB
:102BD8003A8EBB8F9A4249D93A8EB98FB7F84430AA
:102BE8000B449A4242DA334B1B78324A1278114628
:102BF800314A52F8212011461846FEF7D5FD2D4BD3
:102C08001C782C4B1B781A462C4B33F8123018467C
:102C1800FDF76AFC22A3D3E90023FDF7CFFC0246A7
:102C28000B4610461946FDF7A1FF03469BB219460D
:102C38002046FEF7CFFE1F4B1B781E4A127811461E
:102C48001F4A32F8112011461846FEF7B5FFFEF765
:102C5800F1FC002220211B4809F017F964200CF030
:102C68000FF803E0184B5B6800209847164B9B8EC3
:102C78001BB2002BF6DB09E001222021134809F0E2
:102C880004F9012220210F4809F0FFF814200BF065
:102C9800F7FFB7E65C37BD4690BD00BFAFF30080D5
:102CA80048E17A14AE471140E2080020E00800200D
:102CB800E108002018030020F80200200803002083
:102CC800100300200018014024000020000C0140DF
:102CD80090B59BB004AF48F2304005F0D7FECC4B1E
:102CE80048F230421A6040F2CF130293C94B019365
:102CF80020230093282364221421602006F078F909
:102D08000A23A7F856300A23A7F854302823A7F82F
:102D180052302823A7F85030B7F85620B7F8523069
:102D280013449CB2B7F85420B7F8503013449BB200
:102D3800B7F85410B7F856004CF2186200922246C1
:102D480005F0D2FEB24B4CF218621A60B7F8562062
:102D5800B7F8523013449CB2B7F85420B7F8503043
:102D680013449BB2B7F85410B7F8560000220092EB
:102D7800224605F07CFFB7F856300A3398B2B7F808
:102D88005430043399B200230293A34B01932023B8
:102D980000931823102206F02BF9A023A7F84E3031
:102DA8001423A7F84C304123A7F84A302823A7F862
:102DB8004830B7F84E20B7F84A3013449CB2B7F8F9
:102DC8004C20B7F8483013449BB2B7F84C10B7F80A
:102DD8004E004FF6E0720092224605F085FE8C4BBD
:102DE8004FF6E0721A60B7F84E20B7F84A3013442D
:102DF8009CB2B7F84C20B7F8483013449BB2B7F8E8
:102E08004C10B7F84E0000220092224605F02FFF22
:102E1800824B1B781A4607F12003814918460CF0AB
:102E280003FFB7F84E300A3398B2B7F84C3008337E
:102E380099B2B7F84A30143B9AB2B7F84830103B09
:102E48009CB21F23029307F12003019318230093D8
:102E5800234606F0CDF8C823A7F846303C23A7F848
:102E680044301423A7F842304623A7F8403096236D
:102E7800FB87E623BB87102387F83B30B7F842204F
:102E8800B7F8463013449CB2B7F84020B7F844303E
:102E980013449BB2B7F84010B7F842004CF21862DE
:102EA8000092224605F020FE594B4CF218621A6037
:102EB800B7F84220B7F8463013449CB2B7F8402020
:102EC800B7F8443013449BB2B7F84010B7F8420043
:102ED80000220092224605F0CAFEB7F842300A33B3
:102EE80098B2B7F84030083399B2B7F84630143B77
:102EF8009AB2B7F84430103B9BB200240294494C74
:102F080001941824009406F073F8444B1B781A4671
:102F1800454B53F822203B46444918460CF084FEA2
:102F2800B7F84230643398B2B7F84030233399B2D7
:102F3800B7F846306E3B9AB24FF4784302933B465B
:102F4800019397F83B300093142306F051F8B7F833
:102F58004220B7F8463013449CB2FA8FB7F8443091
:102F680013449BB2F98FB7F842004CF218620092F2
:102F7800224605F0B9FD264B4CF218621A60B7F8E4
:102F88004220B7F8463013449CB2FA8FB7F8443061
:102F980013449BB2F98FB7F84200002200922246F0
:102FA80005F065FEB7F842300A3398B2FB8F083354
:102FB80099B2B7F84630143B9AB2B7F84430103B90
:102FC8009BB2002402941A4C01941824009406F031
:102FD8000FF8124B1B781A46164B33F812301A4664
:102FE8003B46154918460CF01FFEB7F842306433CB
:102FF80098B2FB8F233399B2B7F846308C3B9AB21C
:103008004FF4784302933B46019397F83B3015E021
:103018001C000020C4330108E8330108180300200D
:10302800EC330108F4330108F8020020FC330108EE
:10303800043401080803002008340108009314230D
:1030480005F0D6FF78233B87B7F842203B8F13441F
:103058009CB2BA8FB7F8443013449BB2B98FB7F813
:1030680042004CF218620092224605F03DFD994B51
:103078004CF218621A60B7F842203B8F13449CB296
:10308800BA8FB7F8443013449BB2B98FB7F84200EF
:1030980000220092224605F0EAFDB7F842300A33D2
:1030A80098B2BB8F083399B23B8F143B9AB2B7F8EA
:1030B8004430103B9BB200240294874C019418249E
:1030C800009405F095FF854B1B781A46844B33F81E
:1030D80012301A463B46834918460CF0A5FDB7F84E
:1030E80042303C3398B2BB8F233399B23B8F463B77
:1030F8009AB24FF4784302933B46019397F83B30DA
:103108000093142305F074FFB7F842203B8F134453
:103118009BB21433FB863C23BB86FA8EBB8E1344CA
:103128009CB2BA8FB7F8443013449BB2B98FF88E6B
:103138004FF4FC620092224605F0D6FC654B4FF432
:10314800FC621A60FA8EBB8E13449CB2BA8FB7F831
:10315800443013449BB2B98FF88E00220092224665
:1031680005F085FDFB8E0E3398B2BB8F123399B2F2
:10317800BB8E103B9AB2B7F84430243B9BB2002474
:103188000294594C01941824009405F031FF574BD0
:103198005B6800209847554B9B8E1BB2002B80F232
:1031A800418100222021524808F06FFE4F4B9B8935
:1031B8007B864E4B1B8C3B867A8EB7F856309A42EC
:1031C80018D97A8EB7F85610B7F852300B449A428D
:1031D80010DA3A8EB7F854309A420BD93A8EB7F8CB
:1031E8005410B7F850300B449A4203DA414B00228E
:1031F8001A7025E17A8EB7F84E309A4222D97A8E23
:10320800B7F84E10B7F84A300B449A421ADA3A8E99
:10321800B7F84C309A4215D93A8EB7F84C10B7F82F
:1032280048300B449A420DDA2C4B1B7801335A4232
:1032380003F0030302F0030258BF5342DAB2274BEC
:103248001A70FDE07A8EB7F842309A421FD97A8E0A
:10325800B7F84210B7F846300B449A4217DA3A8E5C
:10326800B7F840309A4212D93A8EB7F84010B7F8FA
:1032780044300B449A420ADA1F4B01221A701D4B44
:103288001A781E4B1A701B4B05221A70D8E07A8EDA
:10329800B7F842309A4233D97A8EB7F84210B7F865
:1032A80046300B449A422BDA3A8EFB8F9A4227D942
:1032B8003A8EF98FB7F844300B449A4220DA0E4B15
:1032C80002221A700B4B1A780C4B1A70094B052204
:1032D8001A70B5E01C000020103401081803002003
:1032E80010030020183401082034010824000020AD
:1032F800000C0140E0080020E2080020E10800205E
:103308007A8EB7F842309A421CD97A8EB7F84210B2
:103318003B8F0B449A4215DA3A8EBB8F9A4211D9E9
:103328003A8EB98FB7F844300B449A420ADA4C4BBC
:1033380003221A704B4B1A784B4B1A70494B0522D3
:103348001A707DE07A8EFB8E9A4265D97A8EF98E54
:10335800BB8E0B449A425FDA3A8EBB8F9A425BD996
:103368003A8EB98FB7F844300B449A4254DA3F4B3F
:103378001B783E4A127811463D4A52F821201146E0
:103388001846FEF711FA394B1C78384B1B781A4649
:10339800384B33F812301846FDF7A6F82AA3D3E9BC
:1033A8000023FDF70BF902460B461046194628A3E1
:1033B800D3E90023FCF74AFF02460B46104619469C
:1033C80025A3D3E90023FDF7F9F802460B4610467A
:1033D8001946FDF7CBFB03469BB219462046FEF77C
:1033E800F9FA224B1B78214A12781146224A32F800
:1033F800112011461846FEF7DFFBFEF71BF90022E5
:1034080020211E4808F041FD64200BF039FC03E040
:103418001B4B5B6800209847194B9B8E1BB2002BF7
:10342800F6DB09E001222021164808F02EFD0122D2
:103438002021124808F029FD14200BF021FCA6E6F3
:103448005C37BD4690BD00BFFE43FAEDEBC0A93F17
:10345800C3F5285C8F023A4048E17A14AE47114020
:10346800E2080020E0080020E108002018030020FE
:10347800F802002008030020100300200018014073
:1034880024000020000C014090B5A1B004AF48F220
:10349800304005F0FBFA3C23A7F856300A23A7F87A
:1034A8005430E623A7F852304123A7F850302023A0
:1034B80087F84F3007F1080300221A605A60C3F8F2
:1034C8000720002387F86F303C23A7F84C302823C7
:1034D800A7F84A300F23A7F848300F23A7F846303B
:1034E8001423A7F844305A23A7F84230182387F842
:1034F80041300023BB80B7F85030B7F85220B7F8F6
:103508005410B7F856000024009405F0B0FBB7F843
:103518005630023398B2B7F85430023399B2B7F83C
:103528005230023B9AB2B7F85030023B9BB24FF68A
:10353800FF74009405F0D8FA0123BB6600237B666C
:1035480066E000233B665DE0B7F84C20B7F84830EA
:1035580013449BB23A6E92B202FB03F39AB2B7F8E5
:10356800443013447B83B7F84A20B7F846301344F5
:103578009BB27A6E92B202FB03F39AB2B7F842306A
:1035880013443B837A8BB7F84C301344FB823A8B55
:10359800B7F84A301344BB82BB8AFA8A398B788BD6
:1035A8004CF21864009405F09FFAB04B4CF2186284
:1035B8001A60BB8AFA8A398B788B0024009405F04C
:1035C80056FBBB6EDBB23033DBB23B7100237B7141
:1035D8007B8B163398B23B8B083399B2B7F84A40C5
:1035E800B7F84C20002302933B1D019397F8413014
:1035F8000093234605F0FCFCBB6E0133BB663B6EB3
:1036080001333B663B6E022B9EDD7B6E01337B668E
:103618007B6E022B95DDB7F84C20B7F84830134481
:103628009AB2B7F844301344FB87B7F84A20B7F882
:10363800463013449BB21A46520013449AB2B7F864
:1036480042301344BB87FA8FB7F84C3013449CB20E
:10365800BA8FB7F84A3013449BB2B98FF88F4CF23F
:1036680018620092224605F03FFA804B4CF218622D
:103678001A60FA8FB7F84C3013449CB2BA8FB7F877
:103688004A3013449BB2B98FF88F00220092224629
:1036980005F0EDFAFB8F163398B2BB8F083399B259
:1036A800B7F84A40B7F84C2000230293704B0193B7
:1036B80097F841300093234605F09AFCB7F8443058
:1036C8007B87BB8F3B877A8FB7F84C3013449CB20B
:1036D8003A8FB7F84A3013449BB2398F788F47F640
:1036E8007C520092224605F0FFF9604B47F67C5267
:1036F8001A607A8FB7F84C3013449CB23A8FB7F8F7
:103708004A3013449BB2398F788F002200922246A8
:1037180005F0ADFA7B8F0A3398B23B8F083399B224
:10372800B7F84A40B7F84C2000230293514B019355
:1037380097F841300093234605F05AFCB7F84C201F
:10374800B7F8483013449BB25B009AB2B7F84430DC
:103758001344FB86BB8FBB86FA8EB7F84C301344F4
:103768009CB2BA8EB7F84A3013449BB2B98EF88E21
:103778004FF4FC620092224605F0B6F93B4B4FF439
:10378800FC621A60FA8EB7F84C3013449CB2BA8EB9
:10379800B7F84A3013449BB2B98EF88E00220092D3
:1037A800224605F064FAFB8E0C3398B2BB8E0833C0
:1037B80099B2B7F84A40B7F84C20002302932E4B31
:1037C800019397F841300093234605F011FC0A2332
:1037D8007B860A233B862823FB852823BB857A8E94
:1037E800FB8D13449CB23A8EBB8D13449BB2398E29
:1037F800788E4CF218620092224605F075F91B4B40
:103808004CF218621A607A8EFB8D13449CB23A8E81
:10381800BB8D13449BB2398E788E002200922246CB
:1038280005F025FA7B8E0A3398B23B8E043399B2A1
:1038380000230293114B0193202300931823102295
:1038480005F0D6FB0E4B5B68002098470C4B9B8E0F
:103858001BB2002B80F29B8100222021094808F02E
:1038680014FB074B9B897B850EE000BF1C000020E2
:1038780024340108283401082C340108E8330108ED
:1038880024000020000C0140934B1B8C3B857A8D53
:103898007B8E9A4214D97A8D798EFB8D0B449A428D
:1038A8000EDA3A8D3B8E9A420AD93A8D398EBB8D03
:1038B8000B449A4204DA894B1A78894B1A7074E1DE
:1038C8000023FB6563E00023BB655AE0B7F84C2092
:1038D800B7F8483013449BB2BA6D92B202FB03F3B7
:1038E8009AB2B7F8443013447B84B7F84A20B7F843
:1038F800463013449BB2FA6D92B202FB03F39AB2BC
:10390800B7F8423013443B847A8CB7F84C301344F0
:10391800FB833A8CB7F84A301344BB837A8D7B8C8F
:103928009A422BD97A8DFB8B9A4227D23A8D3B8CBF
:103938009A4223D93A8DBB8B9A421FD297F86F309F
:10394800092B1BD8FB6DDBB21A4652001344DAB2BE
:10395800BB6DDBB21344DAB297F86F30591C87F8A5
:103968006F103132D2B270333B4403F8682C97F8A9
:103978006F3070333B44002203F8682CBB6D013371
:10398800BB65BB6D022BA1DDFB6D0133FB65FB6DD8
:10399800022B98DD7A8DFB8F9A4226D97A8DF98F82
:1039A800B7F84C300B449A421FDA3A8DBB8F9A42D3
:1039B8001BD93A8DB98FB7F84A300B449A4214DABA
:1039C80097F86F30092B10D897F86F305A1C87F882
:1039D8006F2070333B44302203F8682C97F86F301F
:1039E80070333B44002203F8682C7A8D7B8F9A420F
:1039F80021D97A8D798FB7F84C300B449A421ADA6C
:103A08003A8D3B8F9A4216D93A8D398FB7F84A309A
:103A18000B449A420FDA97F86F30002B0BD097F8C7
:103A28006F30013B87F86F3097F86F3070333B4445
:103A3800002203F8682C7A8DFB8E9A425ED97A8D23
:103A4800F98EB7F84C300B449A4257DA3A8DBB8E50
:103A58009A4253D93A8DB98EB7F84A300B449A42F4
:103A68004CDA97F86F30002B2BD007F10803184673
:103A78000BF017F903467B621A4B1B78012B07D111
:103A8800194B1B781946194A7B6A42F8213018E00D
:103A9800144B1B78022B08D1134B1B781A467B6AF0
:103AA80099B2134B23F812100BE00E4B1B78032B23
:103AB80007D10D4B1B781A467B6A99B20D4B23F838
:103AC8001210002220210C4808F0DFF9034B1A7865
:103AD800034B1A7069E000BF24000020E1080020B1
:103AE800E0080020E208002018030020F802002067
:103AF800080300201003002000180140B7F85630D2
:103B0800023398B2B7F85430023399B2B7F852304A
:103B1800023B9AB2B7F85030023B9BB24FF6FF74A3
:103B2800009404F0E1FF224B4FF6FF721A60B7F8D9
:103B38005630063398B2B7F854300A3399B2B7F80A
:103B48005220B7F85630D31A9BB2143B9CB2B7F840
:103B58005020B7F85430D31A9BB2143B9AB24FF4A2
:103B68007843029307F10803019397F84F300093C5
:103B78001346224605F03CFA03E00E4B5B68002032
:103B880098470C4B9B8E1BB2002BF6DB09E00122F9
:103B98002021094808F079F901222021074808F076
:103BA80074F932200BF06CF84CE67437BD4690BDC2
:103BB8001C00002024000020000C014000180140D7
:103BC800B0B5B4B004AF48F2304004F05FFF4D4BDD
:103BD80048F230421A601F2302934B4B0193202373
:103BE8000093282364221421502005F001FA0A23A7
:103BF800A7F88E300A23A7F88C302823A7F88A3034
:103C08002823A7F88830B7F88E20B7F88A301344ED
:103C18009CB2B7F88C20B7F8883013449BB2B7F839
:103C28008C10B7F88E004CF218620092224604F00D
:103C38005BFF344B4CF218621A60B7F88E20B7F865
:103C48008A3013449CB2B7F88C20B7F888301344F4
:103C58009BB2B7F88C10B7F88E000022009222466B
:103C680005F005F8B7F88E300A3398B2B7F88C30FB
:103C7800043399B200230293244B01932023009329
:103C88001823102205F0B4F91423A7F88630A023CE
:103C9800A7F88430C823A7F882301423A7F8803007
:103CA8000023C7F8BC30F623FB674FF47A73C7F8D4
:103CB800B83069E11649D7F8BC30D7F8B82041F8D0
:103CC8002320D7F8B8100020FDF76EFD4FF4587187
:103CD8000020FDF77FFE00210020FDF76DFFFDF7B6
:103CE800A9FCC8200AF0CCFF0023C7F8B4304FF66F
:103CF800FF733B674FF47A73FB660023C7F8B03055
:103D08001FE000BF1C000020C8330108E833010889
:103D18001C0300200120FEF757F8034640F6E44252
:103D280002FB03F31B0B3B663A6ED7F8B4309A429A
:103D380002D93B6EC7F8B430D7F8B0300133C7F8B2
:103D4800B030D7F8B020FB6E9A42E3D3D7F8B4303E
:103D580099B2C04AD7F8BC3022F81310B7F88620B9
:103D6800B7F8823013449CB2B7F88420B7F8803093
:103D780013449BB2B7F88410B7F88600002200926B
:103D8800224604F074FFB7F88230D7F8BC2003FB52
:103D980002F2FB6F92FBF3F3A7F86A30B7F86A30C8
:103DA800002B1BD0B7F88630013398B2B7F88430AF
:103DB800013399B2B7F88620B7F86A3013449CB239
:103DC800B7F88420B7F8803013449BB2013B9BB20C
:103DD8004FF4FC620092224604F086FEB7F86A208F
:103DE800B7F88230013B9A4221DAB7F88620B7F853
:103DF8006A3013449BB2013398B2B7F88430013368
:103E080099B2B7F88620B7F8823013449BB2013BC9
:103E18009CB2B7F88420B7F8803013449BB2013BBA
:103E28009BB24FF6FF720092224604F05DFED7F86F
:103E3800BC30642203FB02F2FB6F92FBF3F387F8BA
:103E4800693097F8692007F12003834918460BF079
:103E5800EBFE824B48F230421A600023029307F1CE
:103E680020030193182300931423F0227821322091
:103E780005F0BEF83B46D7F8B820794918460BF04C
:103E8800D3FE002302933B4601931023009318238B
:103E9800C822C8213C2005F0ABF86E4AD7F8BC30E0
:103EA80032F813301A463B466E4918460BF0BCFEF2
:103EB800002302933B460193102300931823C82242
:103EC800DC213C2005F094F8674B5B68002098479C
:103ED800654B9B8E1BB2002B47DA002220216348DA
:103EE80007F0D3FF604B9B89A7F866305E4B1B8CAD
:103EF800A7F86430B7F86620B7F88E309A422ED902
:103F0800B7F86620B7F88E10B7F88A300B449A4293
:103F180025DAB7F86420B7F88C309A421FD9B7F879
:103F28006420B7F88C10B7F888300B449A4216DA38
:103F38004F4B1A784F4B1A7000210020FDF734FCC4
:103F480000210020FDF746FD00210020FDF734FE8A
:103F5800FDF770FBF6E1444B5B6800209847424B45
:103F68009B8E1BB2002BF6DB04E0012220213F4888
:103F780007F08BFFD7F8B830C833C7F8B830D7F890
:103F8800BC300133C7F8BC30D7F8B8304CF25032E7
:103F980093427FF68FAEB7F88630013398B2B7F800
:103FA8008430013399B2B7F88620B7F882301344C9
:103FB8009BB2013B9CB2B7F88420B7F88030134419
:103FC8009BB2013B9BB24FF4FC620092224604F084
:103FD8008BFD00230293284B01931823009314238D
:103FE800F0227821322005F003F80023A7F8AE303C
:103FF8000023C7F8A8300023C7F8A4301BE0154AEF
:10400800D7F8A43032F81330B7F8AE209A420DD260
:10401800104AD7F8A43032F81330A7F8AE30174A50
:10402800D7F8A43052F82330C7F8A830D7F8A4300E
:104038000133C7F8A430D7F8A430F52BDFDD4FF6ED
:10404800FF73A7F8A2300023C7F89C300023C7F8F5
:10405800983031E0F4060020303401081C000020BC
:10406800403401085034010824000020000C0140AD
:10407800E1080020E0080020603401081C0300204B
:10408800B24AD7F8983032F81330B7F8A2209A42DB
:104098000DD9AE4AD7F8983032F81330A7F8A230C5
:1040A800AB4AD7F8983052F82330C7F89C30D7F885
:1040B80098300133C7F89830D7F89830F52BDFDD02
:1040C8000023C7F894300023C7F890300FE09F4AC8
:1040D800D7F8903032F813301A46D7F89430134492
:1040E800C7F89430D7F890300133C7F89030D7F834
:1040F8009030F52BEBDDD7F894305B08954AA2FB9E
:1041080003231B09A7F87A3007F140032022002176
:1041180018460BF0EEFDD7F8A83044F26822934217
:1041280020D8B7F8AE301846FCF7DEF904460D463D
:10413800B7F87A301846FCF7D7F94FF00002864BEB
:10414800FCF73CFA02460B4620462946FCF7C6FC1B
:104158000346002B06D007F14003804A07CA03C371
:104168001A7087E0D7F8A83048F2CF42934220D996
:10417800B7F8AE301846FCF7B7F904460D46B7F85D
:104188007A301846FCF7B0F94FF00002724BFCF792
:1041980015FA02460B4620462946FCF79FFC0346C3
:1041A800002B06D007F140036D4A07CA03C31A80E3
:1041B80060E0D7F8A83044F26822934226D9D7F8AD
:1041C800A83048F2CF42934220D8B7F8AE3018460C
:1041D800FCF78AF904460D46B7F87A301846FCF71A
:1041E80083F94FF000025C4BFCF7E8F902460B46F6
:1041F80020462946FCF772FC0346002B06D007F13F
:104208004003584A07CA03C31A8033E0D7F89C30E2
:1042180044F26822934226D9D7F89C3048F2CF421C
:10422800934220D8B7F8A2301846FCF75DF9044647
:104238000D46B7F87A301846FCF756F94FF00002E9
:10424800454BFCF7E5FA02460B4620462946FCF7A3
:1042580027FC0346002B06D007F14003424A07CA51
:1042680003C31A8006E007F14003404A92E80300BE
:1042780083E803004FF47843029307F14003019366
:10428800182300931423F022FA21462004F0B0FEEC
:10429800374B5B6800209847354B9B8E1BB2002B31
:1042A80047DA00222021334807F0EFFD304B9B8985
:1042B800A7F878302E4B1B8CA7F87630B7F8782003
:1042C800B7F88E309A422ED9B7F87820B7F88E1002
:1042D800B7F88A300B449A4225DAB7F87620B7F84F
:1042E8008C309A421FD9B7F87620B7F88C10B7F8F7
:1042F80088300B449A4216DA1F4B1A781F4B1A70F3
:1043080000210120FDF750FA00210120FDF762FB92
:1043180000210120FDF750FCFDF78CF912E0144B49
:104328005B6800209847124B9B8E1BB2002BF6DB74
:1043380004E0012220210F4807F0A7FD14200AF00D
:104348009FFCA5E7C037BD46B0BD00BFF4060020FE
:104358001C03002015024D210000F83F70340108AD
:104368007C3401088834010894340108A034010819
:1043780024000020000C0140E1080020E008002093
:1043880090B5A1B004AF48F2304004F07FFB994BE0
:1043980048F230421A601F230293974B019320235F
:1043A8000093282364221421502004F021FE0A23BC
:1043B800A7F85E300A23A7F85C302823A7F85A30FC
:1043C8002823A7F85830B7F85E20B7F85A301344B6
:1043D8009CB2B7F85C20B7F8583013449BB2B7F8D2
:1043E8005C10B7F85E004CF218620092224604F0A6
:1043F8007BFB804B4CF218621A60B7F85E20B7F866
:104408005A3013449CB2B7F85C20B7F858301344BC
:104418009BB2B7F85C10B7F85E0000220092224603
:1044280004F025FCB7F85E300A3398B2B7F85C3070
:10443800043399B200230293704B01932023009315
:104448001823102204F0D4FD6A4B48F230421A6057
:10445800002302936A4B0193182300931823C82260
:1044680078210F2004F0C4FD00230293654B0193CB
:10447800102300931823C822B4211E2004F0B8FD8D
:1044880000230293604B0193102300931823C82242
:10449800C8211E2004F0ACFD5C4808F049FB5B4BCA
:1044A8001B6800225A620021584808F0FFFD0021CD
:1044B800564808F0E1FC564B5B6800209847544B7F
:1044C8009B8E1BB2002B52DA00222021514807F0A4
:1044D800DCFC4F4B9B89A7F856304D4B1B8CA7F83B
:1044E8005430B7F85620B7F85E309A4239D9B7F841
:1044F8005620B7F85E10B7F85A300B449A4230DAB3
:10450800B7F85420B7F85C309A422AD9B7F8542043
:10451800B7F85C10B7F858300B449A4221DA3E4B92
:104528001A783E4B1A7000210020FDF73DF9002152
:104538000020FDF74FFA00210020FDF73DFBFDF7B5
:1045480079F80021314808F0B1FD304B1B68002292
:104558005A622E4808F044FBFEE02D4B5B680020B1
:1045680098472B4B9B8E1BB2002BF6DB04E00122F5
:104578002021284807F089FC294B1B78DBB2002B47
:1045880000F0E680264B00221A70264B3B65264B2E
:104598001B683A6DB2FBF3F3FB64244B1B68FA6C9F
:1045A8009A4209D106F080FB0246214B1B68D31AB8
:1045B800B3F5FA7F40F2CC801C4AFB6C136006F01E
:1045C80073FB03461A4A13600023FB664FF0FF3360
:1045D800BB6600237B6641E0164A7B6E52F82330A7
:1045E800FA6C9A4228D9134A7B6E52F82330FA6C37
:1045F800D31A27E01C000020D0330108E833010853
:10460800A8340108BC340108D0340108F00800209F
:1046180024000020000C0140E1080020E0080020F0
:104628004409002040420F0040090020E40800200F
:10463800E80800201C0300204B4A7B6E52F8232018
:10464800FB6CD31A3B643A6CBB6E9A4203D23B6C48
:10465800BB667B6EFB667B6E01337B667B6EF52BE0
:10466800BADD414AFB6E52F82330BB643F4AFB6E09
:1046780032F81330A7F84630B7F846303C4AA2FB68
:104688000323DB089BB21846FCF79AFB03463B66FC
:104698003849386EFCF7A4FD0346002B01D0354B92
:1046A8003B66B96C0020FDF77FF8386EFBF72EFFEC
:1046B8002BA3D3E90023FBF781FF02460B461046E4
:1046C8001946FCF753FA03469BB219460020FDF73A
:1046D80081F900210020FDF76FFAFCF7ABFF3B469C
:1046E800FA6C254918460BF09FFA1F2302933B46A4
:1046F8000193102300931823C822B4211E2004F02C
:1047080077FC3B46BA6C1D4918460BF08DFA4FF4FE
:10471800784302933B460193102300931823C82241
:10472800C8211E2004F064FCB7F846203B46144913
:1047380018460BF079FA4FF4784302933B460193FD
:10474800102300931823C822DC211E2004F050FCFB
:1047580014200AF095FAAEE67437BD4690BD00BF46
:1047680048E17A14AE4711401C030020F4060020EB
:10477800CDCCCCCC00006B43E4340108FC340108F8
:104788001435010890B589B004AF48F2304004F000
:104798007DF95D4B48F230421A600A23FB810A23F7
:1047A800BB8128237B8128233B81FA897B89134499
:1047B8009CB2BA893B8913449BB2B989F8894CF2F7
:1047C80018620092224604F08FF94F4B4CF218629F
:1047D8001A60FA897B8913449CB2BA893B891344CD
:1047E8009BB2B989F88900220092224604F03FFA68
:1047F800FB890A3398B2BB89043399B20023029328
:10480800424B0193202300931823102204F0F0FB5D
:104818003D4B48F230421A601F2302933C4B0193F0
:104828002023009364234FF48C725021582004F005
:10483800DFFB00230293374B01931023009364237B
:104848004FF48C72A0211E2004F0D2FB00230293A7
:10485800314B01931023009364234FF48C72DC21B5
:10486800342004F0C5FB002302932C4B0193102342
:10487800009364234FF48C724FF49671342004F043
:10488800B7FB274B5B6800209847254B9B8E1BB2D4
:10489800002B2DDA00222021224807F0F6FA204BBF
:1048A8009B89FB801E4B1B8CBB80FA88FB899A4234
:1048B80018D9FA88F9897B890B449A4212DABA889E
:1048C800BB899A420ED9BA88B9893B890B449A4266
:1048D80008DA154B1A78154B1A7012E0104B5B6802
:1048E800002098470E4B9B8E1BB2002BF6DB04E092
:1048F800012220210B4807F0C8FA14200AF0C0F959
:10490800BFE71437BD4690BD1C000020E8330108FE
:104918002C350108343501084C350108603501088B
:1049280024000020000C0140E1080020E0080020DD
:1049380090B589B004AF48F2304004F0A7F8734B43
:1049480048F230421A600A23FB810A23BB812823DC
:104958007B8128233B81FA897B8913449CB2BA89DD
:104968003B8913449BB2B989F8894CF218620092CA
:10497800224604F0B9F8654B4CF218621A60FA89BD
:104988007B8913449CB2BA893B8913449BB2B98989
:10499800F88900220092224604F069F9FB890A335B
:1049A80098B2BB89043399B200230293584B019300
:1049B800202300931823102204F01AFB534B48F2CB
:1049C80030421A601F230293524B01932023009315
:1049D80064234FF48C721421582004F009FB00233F
:1049E80002934D4B01931823009364234FF48C7268
:1049F8005021482004F0FCFA4FF478430293474BC7
:104A080001931823009364234FF48C7282213C2075
:104A180004F0EEFA00230293414B01931023009314
:104A280064234FF48C72BE21542004F0E1FA002371
:104A380002933C4B01931023009364234FF48C7230
:104A4800D221502004F0D4FA4BF640430293364B5F
:104A580001930C23009364234FF48C7240F22511C8
:104A68004E2004F0C5FA4BF6404302932F4B0193B6
:104A78000C23009364234FF48C7240F233114E20C0
:104A880004F0B6FA2A4B5B6800209847284B9B8EA7
:104A98001BB2002B2DDA00222021264807F0F5F959
:104AA800234B9B89FB80224B1B8CBB80FA88FB899C
:104AB8009A4218D9FA88F9897B890B449A4212DA02
:104AC800BA88BB899A420ED9BA88B9893B890B44FE
:104AD8009A4208DA184B1A78184B1A7012E0144BDD
:104AE8005B6800209847124B9B8E1BB2002BF6DBAD
:104AF80004E0012220210F4807F0C7F914200AF02A
:104B0800BFF8BFE71437BD4690BD00BF1C000020AA
:104B1800E8330108E03301087435010880350108DD
:104B28008C35010898350108A4350108B435010809
:104B380024000020000C0140E1080020E0080020CB
:104B480080B500AF06F058F800F04CF848200AF09D
:104B580049F8FDF731FAFDF753F900F0F9FAFDF7D6
:104B68009DF800F0DFF903F0DFFD1C4B1B68984748
:104B7800FCF796FB1A4B1B78072B2BD801A252F88F
:104B880023F000BFAD4B0008B34B0008B94B000839
:104B9800BF4B0008C54B0008CB4B0008D14B0008A1
:104BA800D74B0008FDF7A0FA14E0FDF7CDFC11E0A3
:104BB800FEF78EF80EE0FFF703F80BE0FFF7E0FBD7
:104BC80008E0FEF761FC05E0FFF7B2FE02E0FFF740
:104BD800D9FD00BF14200AF053F8CBE724000020C9
:104BE800E008002080B596B000AF07F13003282216
:104BF800002118460BF07DF807F11C0300221A600B
:104C08005A609A60DA601A613B1D00221A605A6085
:104C18009A60DA601A615A6101233B634FF480336A
:104C28007B630023BB6301233B640223FB644FF4D3
:104C380080333B654FF4E0137B6507F1300318467A
:104C480007F03CF90346002B01D000F028F80F23A9
:104C5800FB6102233B6200237B624FF48063BB62EB
:104C68000023FB6207F11C030221184607F0A8FB8A
:104C78000346002B01D000F012F802237B604FF4AA
:104C88000043FB603B1D184607F028FD0346002B38
:104C980001D000F004F800BF5837BD4680BD80B48D
:104CA80000AF72B600BF00BFFDE7000080B584B05A
:104CB80000AF164B9B69154A43F001039361134BF0
:104CC8009B6903F00103BB60BB68104BDB690F4AAB
:104CD80043F08053D3610D4BDB6903F080537B6055
:104CE8007B68052006F0A2FD094B5B68FB60FB684A
:104CF80023F0E063FB60FB6843F00073FB60044A49
:104D0800FB68536000BF1037BD4680BD00100240ED
:104D18000000014080B400AF00BFFDE780B400AFE1
:104D280000BFFDE780B400AF00BFFDE780B400AF6F
:104D380000BFFDE780B400AF00BFFDE780B400AF5F
:104D480000BFBD4680BC704780B400AF00BFBD4601
:104D580080BC704780B400AF00BFBD4680BC7047C0
:104D680080B500AF05F08EFF00BF80BD80B500AFF5
:104D7800024808F049FA00BF80BD00BFF0080020D3
:104D880080B500AF024809F0D7F800BF80BD00BF6A
:104D9800180A002080B400AF01231846BD4680BC25
:104DA800704780B582B000AF786039600AF0F4FFD0
:104DB800034616221A604FF0FF3318460837BD46DF
:104DC80080BD80B582B000AF78604FF0FF31786861
:104DD800FFF7E7FF00BFFDE780B586B000AFF860DA
:104DE800B9607A6000237B610AE0AFF30080014676
:104DF800BB685A1CBA60CAB21A707B6901337B61FE
:104E08007A697B689A42F0DB7B6818461837BD469A
:104E180080BD80B586B000AFF860B9607A600023C5
:104E28007B6109E0BB685A1CBA601B78184600F021
:104E38007DF97B6901337B617A697B689A42F1DB92
:104E48007B6818461837BD4680BD80B483B000AF74
:104E580078604FF0FF3318460C37BD4680BC70476A
:104E680080B483B000AF786039603B684FF400527B
:104E78005A60002318460C37BD4680BC704780B482
:104E880083B000AF7860012318460C37BD4680BC5C
:104E9800704780B485B000AFF860B9607A600023CD
:104EA80018461437BD4680BC7047000080B586B0F0
:104EB80000AF7860144A154BD31A7B617B693B615C
:104EC800134B1B68002B02D1114B124A1A60104B6E
:104ED8001A687B6813443A699A4207D20AF05CFF61
:104EE80003460C221A604FF0FF3309E0084B1B6899
:104EF800FB60074B1A687B681344054A1360FB681C
:104F080018461837BD4680BD000001200004000087
:104F1800EC080020C80B002080B400AF00BFBD46DD
:104F280080BC704780B58AB000AF07F11803002233
:104F38001A605A609A60DA6007F1100300221A605A
:104F48005A603B4600221A605A609A60DA60324B17
:104F58004FF080421A60304B47225A602E4B002295
:104F68009A602D4B4FF6FF72DA602B4B00221A61C4
:104F7800294B00229A61284807F08BFD0346002B35
:104F880001D0FFF78CFE4FF48053BB6107F1180383
:104F98001946214808F0DCFA0346002B01D0FFF738
:104FA8007EFE1D4807F042FE0346002B01D0FFF7A6
:104FB80076FE00233B6100237B6107F1100319464D
:104FC800154808F043FE0346002B01D0FFF767FEA3
:104FD80000233B6001237B600023BB600023FB6050
:104FE8003B46002219460C4808F016FA0346002BE7
:104FF80001D0FFF754FE084B1B68DA68064B1B68A4
:1050080042F00102DA600021034807F067FE00BFA2
:105018002837BD4680BD00BFF008002080B588B0A5
:1050280000AF786007F1100300221A605A609A6096
:10503800DA607B681B68B3F1804F2BD1174BDB69B3
:10504800164A43F00103D361144BDB6903F00103F3
:10505800FB60FB68114B9B69104A43F004039361A2
:105068000E4B9B6903F00403BB60BB6801233B61E3
:1050780000237B610223BB6107F11003194608482E
:1050880006F058FD002202211C2006F0DAFB1C2045
:1050980006F0F3FB00BF2037BD4680BD001002407C
:1050A8000008014080B582B000AF78607B681B685B
:1050B800B3F1804F2DD17B681B7F012B29D1174B72
:1050C8001B68174A13600021786808F009FB03463B
:1050D800124A1360124B1B68002B1AD00F4B1A6828
:1050E8000F4B1B689A4207D30C4B1A680C4B1B6872
:1050F800D31A0C4A136009E0084B1A68084B1B685E
:10510800D31A03F57F43FF33064A1360064B012287
:105118001A7000BF0837BD4680BD00BF3C0900209B
:1051280038090020400900204409002080B582B0D9
:1051380000AF7860391D4FF0FF330122034808F0B3
:1051480053FE7B6818460837BD4680BD180A002004
:1051580080B500AF134B144A1A60124B4FF4E1327A
:105168005A60104B00229A600E4B0022DA600D4BF9
:1051780000221A610B4B0C225A610A4B00229A61D9
:10518800084B0022DA61074808F0DEFD0346002BD1
:1051980001D0FFF784FD01220449024808F0A7FE68
:1051A80000BF80BD180A002000380140140A002002
:1051B80080B588B000AF786007F1100300221A604C
:1051C8005A609A60DA607B681B68204A934239D13A
:1051D8001F4B9B691E4A43F4804393611C4B9B6998
:1051E80003F48043FB60FB68194B9B69184A43F042
:1051F80004039361164B9B6903F00403BB60BB680F
:105208004FF400733B6102237B610323FB6107F1C9
:10521800100319460F4806F08DFC4FF480633B617C
:1052280000237B610023BB6107F11003194609487D
:1052380006F080FC02220221252006F002FB252030
:1052480006F01BFB00BF2037BD4680BD003801407B
:10525800001002400008014080B582B000AF7860BD
:105268007B681B68244A934242D1244B1B881BB29B
:10527800002B38DB214B1B8803F48043002B11D013
:105288001F4B1B780A2B03D01C4B00221A802AE0E4
:105298001A4B1B886FEA43436FEA53439AB2174B82
:1052A8001A8020E0164B1B780D2B07D1134B1B8857
:1052B80043F480439AB2114B1A8014E00F4B1B88B9
:1052C800C3F30D030E4A11780E4AD1540B4B1B88B9
:1052D80001339AB2094B1A80084B1B88C72B02D995
:1052E800064B00221A8001220549074808F0FFFDF5
:1052F80000BF0837BD4680BD00380140100A0020B5
:10530800140A002048090020180A0020FFF704FEAC
:105318000B480C490C4A002302E0D458C45004330B
:10532800C4188C42F9D3094A094C002301E01360E0
:105338000432A242FBD30AF035FDFFF701FC7047A7
:10534800000000203C020020D86A01083C0200202E
:10535800C40B0020FEE780B500AF00F09DF800BF49
:1053680080BD80B584B000AF0346FB800023FB738B
:1053780000F0A0F8FB881B0A9BB2DBB25B00DBB233
:10538800603BDBB2184600F045F900F0CFF8FB8827
:10539800DBB2184600F03EF900F0C8F800F08AF8D1
:1053A800A12000F037F900F0C1F8002000F06CF9F6
:1053B8000346FB7300F09EF8FB7B18461037BD468A
:1053C80080BD80B582B000AF03460A46FB80134615
:1053D8007B7100F06FF8FB881B0A9BB2DBB25B00A5
:1053E800DBB2603BDBB2184600F014F900F09EF81F
:1053F800FB88DBB2184600F00DF900F097F87B79CE
:10540800184600F007F900F091F800F073F80A2048
:1054180009F036FC00BF0837BD4680BD90B583B0A3
:1054280000AF03463960FB801346BB800AE0FB8867
:105438005A1CFA803C68621C3A601846FFF791FFD4
:1054480003462370BB885A1EBA80002BEFD100BFD9
:1054580000BF0C37BD4690BD80B582B000AF034693
:105468003960FB801346BB800CE03B681A78FB88E8
:1054780011461846FFF7A5FFFB880133FB803B6800
:1054880001333B60BB885A1EBA80002BEDD100BFA8
:1054980000BF0837BD4680BD80B500AF00F02AF8D0
:1054A80000BF80BD80B500AF022009F0ABFB00BF94
:1054B80080BD000080B500AF012280210C4806F0B5
:1054C800E4FC012240210A4806F0DFFCFFF7EAFF6E
:1054D80000228021064806F0D8FCFFF7E3FF0022EF
:1054E8004021034806F0D1FCFFF7DCFF00BF80BD78
:1054F800000C014080B500AF002280210A4806F068
:10550800C4FCFFF7CFFF01224021074806F0BDFC8D
:10551800FFF7C8FF01228021034806F0B6FCFFF719
:10552800C1FF00BF80BD00BF000C014080B582B044
:1055380000AF0023FB710023BB71012280211548B5
:1055480006F0A3FCFFF7AEFF01224021114806F048
:105558009CFCFFF7A7FF0AE0FB790133FB71FB799D
:10556800FA2B04D9FFF7C6FF0123BB7106E080219F
:10557800084806F073FC0346002BEDD100224021B9
:10558800044806F082FCFFF78DFFBB791846083700
:10559800BD4680BD000C014080B500AF00228021CF
:1055A8000D4806F072FCFFF77DFF012240210A48F2
:1055B80006F06BFCFFF776FF00224021064806F054
:1055C80064FCFFF76FFF01228021034806F05DFCB1
:1055D800FFF768FF00BF80BD000C014080B500AF39
:1055E800012280210A4806F050FCFFF75BFF0122E8
:1055F8004021074806F049FCFFF754FF00224021EC
:10560800034806F042FCFFF74DFF00BF80BD00BF16
:10561800000C014080B584B000AF0346FB71002345
:10562800FB7322E097F90730002B05DA012280216D
:10563800144806F02AFC04E000228021114806F0F4
:1056480024FCFFF72FFF012240210E4806F01DFC25
:10565800FFF728FF002240210A4806F016FCFB79D4
:105668005B00FB71FB7B0133FB73FB7B072BD9D9F9
:1056780001228021034806F008FC00BF1037BD4610
:1056880080BD00BF000C014080B584B000AF034668
:10569800FB710023BB730023FB731DE0BB7B5B0026
:1056A800BB7301224021144806F0EFFBFFF7FAFE16
:1056B8008021114806F0D2FB0346002B02D0BB7BA9
:1056C8000133BB73002240210B4806F0DEFBFFF7D5
:1056D800E9FEFB7B0133FB73FB7B072BDED9FB79F0
:1056E800002B02D1FFF77AFF01E0FFF755FFBB7BE4
:1056F80018461037BD4680BD000C014080B500AF8C
:10570800112002F039FC782009F0BAFA362002F0AC
:1057180033FC002002F01CFC3A2002F02DFC05208E
:1057280002F016FCB22002F027FC0C2002F010FC5C
:105738000C2002F00DFC002002F00AFC332002F0DD
:1057480007FC332002F004FCB72002F015FC3520DA
:1057580002F0FEFBBB2002F00FFC322002F0F8FB47
:10576800C02002F009FC0C2002F0F2FBC22002F07B
:1057780003FC012002F0ECFBC32002F0FDFB10202B
:1057880002F0E6FBC42002F0F7FB202002F0E0FB69
:10579800C62002F0F1FB0F2002F0DAFBD02002F065
:1057A800EBFBA42002F0D4FBA12002F0D1FBE02007
:1057B80002F0E2FBD02002F0CBFB002002F0C8FB95
:1057C800022002F0C5FB072002F0C2FB0A2002F00B
:1057D800BFFB282002F0BCFB322002F0B9FB4420BA
:1057E80002F0B6FB422002F0B3FB062002F0B0FB49
:1057F8000E2002F0ADFB122002F0AAFB142002F0EA
:10580800A7FB172002F0A4FBE12002F0B5FBD02093
:1058180002F09EFB002002F09BFB022002F098FBA6
:10582800072002F095FB0A2002F092FB282002F0E4
:105838008FFB312002F08CFB542002F089FB4720BB
:1058480002F086FB0E2002F083FB1C2002F080FB96
:10585800172002F07DFB1B2002F07AFB1E2002F0CD
:1058680077FB2A2002F088FB002002F071FB002061
:1058780002F06EFB002002F06BFBEF2002F068FBE9
:105888002B2002F079FB002002F062FB002002F0DE
:105898005FFB012002F05CFB3F2002F059FB29204E
:1058A80002F06AFB00BF80BD80B500AFCF2002F0D8
:1058B80063FB002002F04CFBC12002F049FB3020C2
:1058C80002F046FBED2002F057FB642002F040FB9B
:1058D800032002F03DFB122002F03AFB812002F087
:1058E80037FBE82002F048FB852002F031FB10204E
:1058F80002F02EFB7A2002F02BFBCB2002F03CFBBF
:10590800392002F025FB2C2002F022FB002002F0B7
:105918001FFB342002F01CFB022002F019FBF720C9
:1059280002F02AFB202002F013FBEA2002F024FBFD
:10593800002002F00DFB002002F00AFBC02002F05C
:105948001BFB1B2002F004FBC12002F015FB012009
:1059580002F0FEFAC52002F00FFB302002F0F8FA40
:10596800302002F0F5FAC72002F006FBB72002F05B
:10597800EFFA362002F000FB482002F0E9FA3A205C
:1059880002F0FAFA552002F0E3FAB12002F0F4FA34
:10599800002002F0DDFA1A2002F0DAFAB62002F04E
:1059A800EBFA0A2002F0D4FAA22002F0D1FAF2208F
:1059B80002F0E2FA002002F0CBFA262002F0DCFA2C
:1059C800012002F0C5FAE02002F0D6FA0F2002F01A
:1059D800BFFA2A2002F0BCFA282002F0B9FA0820FF
:1059E80002F0B6FA0E2002F0B3FA082002F0B0FA7C
:1059F800542002F0ADFAA92002F0AAFA432002F0DE
:105A0800A7FA0A2002F0A4FA0F2002F0A1FA002057
:105A180002F09EFA002002F09BFA002002F098FAA9
:105A2800002002F095FAE12002F0A6FA002002F028
:105A38008FFA152002F08CFA172002F089FA072055
:105A480002F086FA112002F083FA062002F080FAAA
:105A58002B2002F07DFA562002F07AFA3C2002F060
:105A680077FA052002F074FA102002F071FA0F207C
:105A780002F06EFA3F2002F06BFA3F2002F068FA5B
:105A88000F2002F065FA2B2002F076FA002002F0CF
:105A98005FFA002002F05CFA012002F059FA3F2078
:105AA80002F056FA2A2002F067FA002002F050FAB3
:105AB800002002F04DFA002002F04AFAEF2002F02E
:105AC80047FA112002F058FA782009F0D9F829206D
